{
  "contractName": "Marketplace",
  "abi": [
    {
      "constant": true,
      "inputs": [],
      "name": "name",
      "outputs": [
        {
          "name": "",
          "type": "string"
        }
      ],
      "payable": false,
      "stateMutability": "view",
      "type": "function"
    },
    {
      "inputs": [],
      "payable": false,
      "stateMutability": "nonpayable",
      "type": "constructor"
    }
  ],
  "bytecode": "0x608060405234801561001057600080fd5b506040805190810160405280601b81526020017f4461707020556e6976657273697479204d61726b6574706c61636500000000008152506000908051906020019061005c929190610062565b50610107565b828054600181600116156101000203166002900490600052602060002090601f016020900481019282601f106100a357805160ff19168380011785556100d1565b828001600101855582156100d1579182015b828111156100d05782518255916020019190600101906100b5565b5b5090506100de91906100e2565b5090565b61010491905b808211156101005760008160009055506001016100e8565b5090565b90565b61019a806101166000396000f3fe60806040526004361061003b576000357c01000000000000000000000000000000000000000000000000000000009004806306fdde0314610040575b600080fd5b34801561004c57600080fd5b506100556100d0565b6040518080602001828103825283818151815260200191508051906020019080838360005b8381101561009557808201518184015260208101905061007a565b50505050905090810190601f1680156100c25780820380516001836020036101000a031916815260200191505b509250505060405180910390f35b60008054600181600116156101000203166002900480601f0160208091040260200160405190810160405280929190818152602001828054600181600116156101000203166002900480156101665780601f1061013b57610100808354040283529160200191610166565b820191906000526020600020905b81548152906001019060200180831161014957829003601f168201915b50505050508156fea165627a7a72305820ebc10eb091c6fc17d88196e49184654122c82abf77c389d873f54bb0d4d86f5b0029",
  "source": "// SPDX-License-Identifier: MIT\npragma solidity >=0.4.22 <0.9.0;\n\n\n// // TODO: Can change here to make it struct and eliminate the need of mysql to store info and metadata\n// struct Paper {\n//     string timestamp;\n//     address userId;\n//     string cid;\n//     string author;\n//     string title;\n//     string description;\n//     bool dayCompleted;\n// }\n\n\n// contract PublishPaper{\n//     // mapping of cid with user's account id\n//     mapping (string => address) paperToOwner;\n//     mapping ( string => uint) cidToPaperIndex; \n//     Paper[] papers;\n//     uint paperIndex = 0;\n\n//     function onlyOwner(string calldata cid) view public {\n//         require(msg.sender == paperToOwner[cid]);\n//     }\n\n//     function publishPaper (\n//             string memory _timestamp ,\n//             address _userId,\n//             string memory _cid,\n//             string memory _author,\n//             string memory _title,\n//             string memory _description,\n//             bool _dayCompleted \n//         ) public {\n//         paperToOwner[_cid] = _userId;\n//         Paper memory paper = Paper(_timestamp, _userId, _cid, _author, _title, _description, _dayCompleted); \n//         papers.push(paper);\n//         cidToPaperIndex[_cid] = paperIndex;\n//         paperIndex++;\n//     }\n\n//     function deletePaper (string calldata cid) public{\n//         onlyOwner(cid);\n\n//         paperToOwner[cid] = address(0);\n//         Paper memory paper = papers[cidToPaperIndex[cid]];\n//         paper.timestamp = \"\";\n//         paper.userId = address(0);\n//         paper.cid = \"\";\n//         paper.author = \"\";\n//         paper.title = \"\";\n//         paper.description = \"\";\n//         paper.dayCompleted = false;\n//     }\n\n//     function getPaper(string calldata cid) public view returns (string memory,address, string memory, string memory, string memory, bool){\n//         return (papers[cidToPaperIndex[cid]].timestamp, papers[cidToPaperIndex[cid]].userId, papers[cidToPaperIndex[cid]].author, papers[cidToPaperIndex[cid]].title, papers[cidToPaperIndex[cid]].description, papers[cidToPaperIndex[cid]].dayCompleted);\n//     }\n\n//     function getPapers() public view returns (Paper[] memory) {\n//         return (papers);\n//     }\n// }\n\n\n// pragma solidity ^0.5.0;\n\ncontract Marketplace {\n    string public name;\n\n    constructor() public {\n        name = \"Dapp University Marketplace\";\n    }\n}",
  "sourcePath": "/home/death/Desktop/linux backup/sdsLabs/De-Reasearch/Backend/contracts/paper_info.sol",
  "compiler": {
    "name": "solc",
    "version": "0.5.1+commit.c8a2cb62.Emscripten.clang"
  },
  "schemaVersion": "3.4.16",
  "updatedAt": "2023-10-20T04:35:27.063Z",
  "networkType": "ethereum",
  "devdoc": {
    "methods": {}
  },
  "userdoc": {
    "methods": {}
  }
}