{
  "contractName": "PublishPaper",
  "abi": [
    {
      "inputs": [
        {
          "internalType": "string",
          "name": "cid",
          "type": "string"
        }
      ],
      "name": "onlyOwner",
      "outputs": [],
      "stateMutability": "view",
      "type": "function"
    },
    {
      "inputs": [
        {
          "internalType": "string",
          "name": "_timestamp",
          "type": "string"
        },
        {
          "internalType": "address",
          "name": "_userId",
          "type": "address"
        },
        {
          "internalType": "string",
          "name": "_cid",
          "type": "string"
        },
        {
          "internalType": "string",
          "name": "_author",
          "type": "string"
        },
        {
          "internalType": "string",
          "name": "_title",
          "type": "string"
        },
        {
          "internalType": "string",
          "name": "_description",
          "type": "string"
        },
        {
          "internalType": "bool",
          "name": "_dayCompleted",
          "type": "bool"
        }
      ],
      "name": "publishPaper",
      "outputs": [],
      "stateMutability": "nonpayable",
      "type": "function"
    },
    {
      "inputs": [
        {
          "internalType": "string",
          "name": "cid",
          "type": "string"
        }
      ],
      "name": "deletePaper",
      "outputs": [],
      "stateMutability": "nonpayable",
      "type": "function"
    },
    {
      "inputs": [
        {
          "internalType": "string",
          "name": "cid",
          "type": "string"
        }
      ],
      "name": "getPaper",
      "outputs": [
        {
          "internalType": "string",
          "name": "",
          "type": "string"
        },
        {
          "internalType": "address",
          "name": "",
          "type": "address"
        },
        {
          "internalType": "string",
          "name": "",
          "type": "string"
        },
        {
          "internalType": "string",
          "name": "",
          "type": "string"
        },
        {
          "internalType": "string",
          "name": "",
          "type": "string"
        },
        {
          "internalType": "bool",
          "name": "",
          "type": "bool"
        }
      ],
      "stateMutability": "view",
      "type": "function"
    },
    {
      "inputs": [],
      "name": "getPapers",
      "outputs": [
        {
          "components": [
            {
              "internalType": "string",
              "name": "timestamp",
              "type": "string"
            },
            {
              "internalType": "address",
              "name": "userId",
              "type": "address"
            },
            {
              "internalType": "string",
              "name": "cid",
              "type": "string"
            },
            {
              "internalType": "string",
              "name": "author",
              "type": "string"
            },
            {
              "internalType": "string",
              "name": "title",
              "type": "string"
            },
            {
              "internalType": "string",
              "name": "description",
              "type": "string"
            },
            {
              "internalType": "bool",
              "name": "dayCompleted",
              "type": "bool"
            }
          ],
          "internalType": "struct Paper[]",
          "name": "",
          "type": "tuple[]"
        }
      ],
      "stateMutability": "view",
      "type": "function"
    }
  ],
  "bytecode": "0x60806040525f600355348015610013575f80fd5b50611aa0806100215f395ff3fe608060405234801561000f575f80fd5b5060043610610055575f3560e01c806336da2fc41461005957806352bc4089146100755780635ea11c9b14610091578063972a2239146100ad578063df079473146100cb575b5f80fd5b610073600480360381019061006e9190611027565b610100565b005b61008f600480360381019061008a9190611239565b6105b2565b005b6100ab60048036038101906100a69190611027565b61079d565b005b6100b5610816565b6040516100c2919061156a565b60405180910390f35b6100e560048036038101906100e09190611027565b610bb0565b6040516100f7969594939291906115f0565b60405180910390f35b61010a828261079d565b5f80838360405161011c929190611699565b90815260200160405180910390205f6101000a81548173ffffffffffffffffffffffffffffffffffffffff021916908373ffffffffffffffffffffffffffffffffffffffff1602179055505f60026001848460405161017c929190611699565b9081526020016040518091039020548154811061019c5761019b6116b1565b5b905f5260205f2090600702016040518060e00160405290815f820180546101c29061170b565b80601f01602080910402602001604051908101604052809291908181526020018280546101ee9061170b565b80156102395780601f1061021057610100808354040283529160200191610239565b820191905f5260205f20905b81548152906001019060200180831161021c57829003601f168201915b50505050508152602001600182015f9054906101000a900473ffffffffffffffffffffffffffffffffffffffff1673ffffffffffffffffffffffffffffffffffffffff1673ffffffffffffffffffffffffffffffffffffffff1681526020016002820180546102a79061170b565b80601f01602080910402602001604051908101604052809291908181526020018280546102d39061170b565b801561031e5780601f106102f55761010080835404028352916020019161031e565b820191905f5260205f20905b81548152906001019060200180831161030157829003601f168201915b505050505081526020016003820180546103379061170b565b80601f01602080910402602001604051908101604052809291908181526020018280546103639061170b565b80156103ae5780601f10610385576101008083540402835291602001916103ae565b820191905f5260205f20905b81548152906001019060200180831161039157829003601f168201915b505050505081526020016004820180546103c79061170b565b80601f01602080910402602001604051908101604052809291908181526020018280546103f39061170b565b801561043e5780601f106104155761010080835404028352916020019161043e565b820191905f5260205f20905b81548152906001019060200180831161042157829003601f168201915b505050505081526020016005820180546104579061170b565b80601f01602080910402602001604051908101604052809291908181526020018280546104839061170b565b80156104ce5780601f106104a5576101008083540402835291602001916104ce565b820191905f5260205f20905b8154815290600101906020018083116104b157829003601f168201915b50505050508152602001600682015f9054906101000a900460ff161515151581525050905060405180602001604052805f815250815f01819052505f816020019073ffffffffffffffffffffffffffffffffffffffff16908173ffffffffffffffffffffffffffffffffffffffff168152505060405180602001604052805f815250816040018190525060405180602001604052805f815250816060018190525060405180602001604052805f815250816080018190525060405180602001604052805f8152508160a001819052505f8160c0019015159081151581525050505050565b855f866040516105c2919061176b565b90815260200160405180910390205f6101000a81548173ffffffffffffffffffffffffffffffffffffffff021916908373ffffffffffffffffffffffffffffffffffffffff1602179055505f6040518060e001604052808981526020018873ffffffffffffffffffffffffffffffffffffffff1681526020018781526020018681526020018581526020018481526020018315158152509050600281908060018154018082558091505060019003905f5260205f2090600702015f909190919091505f820151815f0190816106979190611927565b506020820151816001015f6101000a81548173ffffffffffffffffffffffffffffffffffffffff021916908373ffffffffffffffffffffffffffffffffffffffff16021790555060408201518160020190816106f39190611927565b5060608201518160030190816107099190611927565b50608082015181600401908161071f9190611927565b5060a08201518160050190816107359190611927565b5060c0820151816006015f6101000a81548160ff021916908315150217905550505060035460018760405161076a919061176b565b90815260200160405180910390208190555060035f81548092919061078e90611a23565b91905055505050505050505050565b5f82826040516107ae929190611699565b90815260200160405180910390205f9054906101000a900473ffffffffffffffffffffffffffffffffffffffff1673ffffffffffffffffffffffffffffffffffffffff163373ffffffffffffffffffffffffffffffffffffffff1614610812575f80fd5b5050565b60606002805480602002602001604051908101604052809291908181526020015f905b82821015610ba7578382905f5260205f2090600702016040518060e00160405290815f820180546108699061170b565b80601f01602080910402602001604051908101604052809291908181526020018280546108959061170b565b80156108e05780601f106108b7576101008083540402835291602001916108e0565b820191905f5260205f20905b8154815290600101906020018083116108c357829003601f168201915b50505050508152602001600182015f9054906101000a900473ffffffffffffffffffffffffffffffffffffffff1673ffffffffffffffffffffffffffffffffffffffff1673ffffffffffffffffffffffffffffffffffffffff16815260200160028201805461094e9061170b565b80601f016020809104026020016040519081016040528092919081815260200182805461097a9061170b565b80156109c55780601f1061099c576101008083540402835291602001916109c5565b820191905f5260205f20905b8154815290600101906020018083116109a857829003601f168201915b505050505081526020016003820180546109de9061170b565b80601f0160208091040260200160405190810160405280929190818152602001828054610a0a9061170b565b8015610a555780601f10610a2c57610100808354040283529160200191610a55565b820191905f5260205f20905b815481529060010190602001808311610a3857829003601f168201915b50505050508152602001600482018054610a6e9061170b565b80601f0160208091040260200160405190810160405280929190818152602001828054610a9a9061170b565b8015610ae55780601f10610abc57610100808354040283529160200191610ae5565b820191905f5260205f20905b815481529060010190602001808311610ac857829003601f168201915b50505050508152602001600582018054610afe9061170b565b80601f0160208091040260200160405190810160405280929190818152602001828054610b2a9061170b565b8015610b755780601f10610b4c57610100808354040283529160200191610b75565b820191905f5260205f20905b815481529060010190602001808311610b5857829003601f168201915b50505050508152602001600682015f9054906101000a900460ff16151515158152505081526020019060010190610839565b50505050905090565b60605f60608060605f600260018989604051610bcd929190611699565b90815260200160405180910390205481548110610bed57610bec6116b1565b5b905f5260205f2090600702015f01600260018a8a604051610c0f929190611699565b90815260200160405180910390205481548110610c2f57610c2e6116b1565b5b905f5260205f2090600702016001015f9054906101000a900473ffffffffffffffffffffffffffffffffffffffff16600260018b8b604051610c72929190611699565b90815260200160405180910390205481548110610c9257610c916116b1565b5b905f5260205f209060070201600301600260018c8c604051610cb5929190611699565b90815260200160405180910390205481548110610cd557610cd46116b1565b5b905f5260205f209060070201600401600260018d8d604051610cf8929190611699565b90815260200160405180910390205481548110610d1857610d176116b1565b5b905f5260205f209060070201600501600260018e8e604051610d3b929190611699565b90815260200160405180910390205481548110610d5b57610d5a6116b1565b5b905f5260205f2090600702016006015f9054906101000a900460ff16858054610d839061170b565b80601f0160208091040260200160405190810160405280929190818152602001828054610daf9061170b565b8015610dfa5780601f10610dd157610100808354040283529160200191610dfa565b820191905f5260205f20905b815481529060010190602001808311610ddd57829003601f168201915b50505050509550838054610e0d9061170b565b80601f0160208091040260200160405190810160405280929190818152602001828054610e399061170b565b8015610e845780601f10610e5b57610100808354040283529160200191610e84565b820191905f5260205f20905b815481529060010190602001808311610e6757829003601f168201915b50505050509350828054610e979061170b565b80601f0160208091040260200160405190810160405280929190818152602001828054610ec39061170b565b8015610f0e5780601f10610ee557610100808354040283529160200191610f0e565b820191905f5260205f20905b815481529060010190602001808311610ef157829003601f168201915b50505050509250818054610f219061170b565b80601f0160208091040260200160405190810160405280929190818152602001828054610f4d9061170b565b8015610f985780601f10610f6f57610100808354040283529160200191610f98565b820191905f5260205f20905b815481529060010190602001808311610f7b57829003601f168201915b505050505091509550955095509550955095509295509295509295565b5f604051905090565b5f80fd5b5f80fd5b5f80fd5b5f80fd5b5f80fd5b5f8083601f840112610fe757610fe6610fc6565b5b8235905067ffffffffffffffff81111561100457611003610fca565b5b6020830191508360018202830111156110205761101f610fce565b5b9250929050565b5f806020838503121561103d5761103c610fbe565b5b5f83013567ffffffffffffffff81111561105a57611059610fc2565b5b61106685828601610fd2565b92509250509250929050565b5f80fd5b5f601f19601f8301169050919050565b7f4e487b71000000000000000000000000000000000000000000000000000000005f52604160045260245ffd5b6110bc82611076565b810181811067ffffffffffffffff821117156110db576110da611086565b5b80604052505050565b5f6110ed610fb5565b90506110f982826110b3565b919050565b5f67ffffffffffffffff82111561111857611117611086565b5b61112182611076565b9050602081019050919050565b828183375f83830152505050565b5f61114e611149846110fe565b6110e4565b90508281526020810184848401111561116a57611169611072565b5b61117584828561112e565b509392505050565b5f82601f83011261119157611190610fc6565b5b81356111a184826020860161113c565b91505092915050565b5f73ffffffffffffffffffffffffffffffffffffffff82169050919050565b5f6111d3826111aa565b9050919050565b6111e3816111c9565b81146111ed575f80fd5b50565b5f813590506111fe816111da565b92915050565b5f8115159050919050565b61121881611204565b8114611222575f80fd5b50565b5f813590506112338161120f565b92915050565b5f805f805f805f60e0888a03121561125457611253610fbe565b5b5f88013567ffffffffffffffff81111561127157611270610fc2565b5b61127d8a828b0161117d565b975050602061128e8a828b016111f0565b965050604088013567ffffffffffffffff8111156112af576112ae610fc2565b5b6112bb8a828b0161117d565b955050606088013567ffffffffffffffff8111156112dc576112db610fc2565b5b6112e88a828b0161117d565b945050608088013567ffffffffffffffff81111561130957611308610fc2565b5b6113158a828b0161117d565b93505060a088013567ffffffffffffffff81111561133657611335610fc2565b5b6113428a828b0161117d565b92505060c06113538a828b01611225565b91505092959891949750929550565b5f81519050919050565b5f82825260208201905092915050565b5f819050602082019050919050565b5f81519050919050565b5f82825260208201905092915050565b5f5b838110156113c25780820151818401526020810190506113a7565b5f8484015250505050565b5f6113d78261138b565b6113e18185611395565b93506113f18185602086016113a5565b6113fa81611076565b840191505092915050565b61140e816111c9565b82525050565b61141d81611204565b82525050565b5f60e083015f8301518482035f86015261143d82826113cd565b91505060208301516114526020860182611405565b506040830151848203604086015261146a82826113cd565b9150506060830151848203606086015261148482826113cd565b9150506080830151848203608086015261149e82826113cd565b91505060a083015184820360a08601526114b882826113cd565b91505060c08301516114cd60c0860182611414565b508091505092915050565b5f6114e38383611423565b905092915050565b5f602082019050919050565b5f61150182611362565b61150b818561136c565b93508360208202850161151d8561137c565b805f5b85811015611558578484038952815161153985826114d8565b9450611544836114eb565b925060208a01995050600181019050611520565b50829750879550505050505092915050565b5f6020820190508181035f83015261158281846114f7565b905092915050565b5f82825260208201905092915050565b5f6115a48261138b565b6115ae818561158a565b93506115be8185602086016113a5565b6115c781611076565b840191505092915050565b6115db816111c9565b82525050565b6115ea81611204565b82525050565b5f60c0820190508181035f830152611608818961159a565b905061161760208301886115d2565b8181036040830152611629818761159a565b9050818103606083015261163d818661159a565b90508181036080830152611651818561159a565b905061166060a08301846115e1565b979650505050505050565b5f81905092915050565b5f611680838561166b565b935061168d83858461112e565b82840190509392505050565b5f6116a5828486611675565b91508190509392505050565b7f4e487b71000000000000000000000000000000000000000000000000000000005f52603260045260245ffd5b7f4e487b71000000000000000000000000000000000000000000000000000000005f52602260045260245ffd5b5f600282049050600182168061172257607f821691505b602082108103611735576117346116de565b5b50919050565b5f6117458261138b565b61174f818561166b565b935061175f8185602086016113a5565b80840191505092915050565b5f611776828461173b565b915081905092915050565b5f819050815f5260205f209050919050565b5f6020601f8301049050919050565b5f82821b905092915050565b5f600883026117dd7fffffffffffffffffffffffffffffffffffffffffffffffffffffffffffffffff826117a2565b6117e786836117a2565b95508019841693508086168417925050509392505050565b5f819050919050565b5f819050919050565b5f61182b611826611821846117ff565b611808565b6117ff565b9050919050565b5f819050919050565b61184483611811565b61185861185082611832565b8484546117ae565b825550505050565b5f90565b61186c611860565b61187781848461183b565b505050565b5b8181101561189a5761188f5f82611864565b60018101905061187d565b5050565b601f8211156118df576118b081611781565b6118b984611793565b810160208510156118c8578190505b6118dc6118d485611793565b83018261187c565b50505b505050565b5f82821c905092915050565b5f6118ff5f19846008026118e4565b1980831691505092915050565b5f61191783836118f0565b9150826002028217905092915050565b6119308261138b565b67ffffffffffffffff81111561194957611948611086565b5b611953825461170b565b61195e82828561189e565b5f60209050601f83116001811461198f575f841561197d578287015190505b611987858261190c565b8655506119ee565b601f19841661199d86611781565b5f5b828110156119c45784890151825560018201915060208501945060208101905061199f565b868310156119e157848901516119dd601f8916826118f0565b8355505b6001600288020188555050505b505050505050565b7f4e487b71000000000000000000000000000000000000000000000000000000005f52601160045260245ffd5b5f611a2d826117ff565b91507fffffffffffffffffffffffffffffffffffffffffffffffffffffffffffffffff8203611a5f57611a5e6119f6565b5b60018201905091905056fea264697066735822122041aaac886aac3b635cda71162e2a2252b9b58992bd102f0f7736f04d0e37858b64736f6c63430008140033",
  "immutableReferences": {},
  "source": "// SPDX-License-Identifier: MIT\npragma solidity >=0.4.22 <0.9.0;\n\n\n// TODO: Can change here to make it struct and eliminate the need of mysql to store info and metadata\nstruct Paper {\n    string timestamp;\n    address userId;\n    string cid;\n    string author;\n    string title;\n    string description;\n    bool dayCompleted;\n}\n\n\ncontract PublishPaper{\n    // mapping of cid with user's account id\n    mapping (string => address) paperToOwner;\n    mapping ( string => uint) cidToPaperIndex; \n    Paper[] papers;\n    uint paperIndex = 0;\n\n\n    function onlyOwner(string calldata cid) view public {\n        require(msg.sender == paperToOwner[cid]);\n    }\n\n    function publishPaper (\n            string memory _timestamp ,\n            address _userId,\n            string memory _cid,\n            string memory _author,\n            string memory _title,\n            string memory _description,\n            bool _dayCompleted \n        ) public {\n        paperToOwner[_cid] = _userId;\n        Paper memory paper = Paper(_timestamp, _userId, _cid, _author, _title, _description, _dayCompleted); \n        papers.push(paper);\n        cidToPaperIndex[_cid] = paperIndex;\n        paperIndex++;\n    }\n\n    function deletePaper (string calldata cid) public{\n        onlyOwner(cid);\n\n        paperToOwner[cid] = address(0);\n        Paper memory paper = papers[cidToPaperIndex[cid]];\n        paper.timestamp = \"\";\n        paper.userId = address(0);\n        paper.cid = \"\";\n        paper.author = \"\";\n        paper.title = \"\";\n        paper.description = \"\";\n        paper.dayCompleted = false;\n    }\n\n    function getPaper(string calldata cid) public view returns (string memory,address, string memory, string memory, string memory, bool){\n        return (papers[cidToPaperIndex[cid]].timestamp, papers[cidToPaperIndex[cid]].userId, papers[cidToPaperIndex[cid]].author, papers[cidToPaperIndex[cid]].title, papers[cidToPaperIndex[cid]].description, papers[cidToPaperIndex[cid]].dayCompleted);\n    }\n\n    function getPapers() public view returns (Paper[] memory) {\n        return (papers);\n    }\n}",
  "sourcePath": "/home/death/Desktop/linux backup/sdsLabs/De-Reasearch/Backend/contracts/paper_info.sol",
  "compiler": {
    "name": "solc",
    "version": "0.8.20+commit.a1b79de6.Emscripten.clang"
  },
  "schemaVersion": "3.4.16",
  "updatedAt": "2023-10-20T04:43:04.040Z",
  "devdoc": {
    "kind": "dev",
    "methods": {},
    "version": 1
  },
  "userdoc": {
    "kind": "user",
    "methods": {},
    "version": 1
  }
}