{
  "contractName": "PublishPaper",
  "abi": [
    {
      "inputs": [
        {
          "internalType": "string",
          "name": "cid",
          "type": "string"
        }
      ],
      "name": "onlyOwner",
      "outputs": [],
      "stateMutability": "view",
      "type": "function",
      "constant": true
    },
    {
      "inputs": [
        {
          "internalType": "string",
          "name": "_timestamp",
          "type": "string"
        },
        {
          "internalType": "address",
          "name": "_userId",
          "type": "address"
        },
        {
          "internalType": "string",
          "name": "_cid",
          "type": "string"
        },
        {
          "internalType": "string",
          "name": "_author",
          "type": "string"
        },
        {
          "internalType": "string",
          "name": "_title",
          "type": "string"
        },
        {
          "internalType": "string",
          "name": "_description",
          "type": "string"
        },
        {
          "internalType": "bool",
          "name": "_dayCompleted",
          "type": "bool"
        }
      ],
      "name": "publishPaper",
      "outputs": [],
      "stateMutability": "nonpayable",
      "type": "function"
    },
    {
      "inputs": [
        {
          "internalType": "string",
          "name": "cid",
          "type": "string"
        }
      ],
      "name": "deletePaper",
      "outputs": [],
      "stateMutability": "nonpayable",
      "type": "function"
    },
    {
      "inputs": [
        {
          "internalType": "string",
          "name": "cid",
          "type": "string"
        }
      ],
      "name": "getPaper",
      "outputs": [
        {
          "internalType": "string",
          "name": "",
          "type": "string"
        },
        {
          "internalType": "address",
          "name": "",
          "type": "address"
        },
        {
          "internalType": "string",
          "name": "",
          "type": "string"
        },
        {
          "internalType": "string",
          "name": "",
          "type": "string"
        },
        {
          "internalType": "string",
          "name": "",
          "type": "string"
        },
        {
          "internalType": "bool",
          "name": "",
          "type": "bool"
        }
      ],
      "stateMutability": "view",
      "type": "function",
      "constant": true
    },
    {
      "inputs": [],
      "name": "getPapers",
      "outputs": [
        {
          "components": [
            {
              "internalType": "string",
              "name": "timestamp",
              "type": "string"
            },
            {
              "internalType": "address",
              "name": "userId",
              "type": "address"
            },
            {
              "internalType": "string",
              "name": "cid",
              "type": "string"
            },
            {
              "internalType": "string",
              "name": "author",
              "type": "string"
            },
            {
              "internalType": "string",
              "name": "title",
              "type": "string"
            },
            {
              "internalType": "string",
              "name": "description",
              "type": "string"
            },
            {
              "internalType": "bool",
              "name": "dayCompleted",
              "type": "bool"
            }
          ],
          "internalType": "struct PublishPaper.Paper[]",
          "name": "",
          "type": "tuple[]"
        }
      ],
      "stateMutability": "view",
      "type": "function",
      "constant": true
    }
  ],
  "bytecode": "0x6080604052600060035534801561001557600080fd5b50611b47806100256000396000f3fe608060405234801561001057600080fd5b50600436106100575760003560e01c806336da2fc41461005c57806352bc4089146100785780635ea11c9b14610094578063972a2239146100b0578063df079473146100ce575b600080fd5b61007660048036038101906100719190611082565b610103565b005b610092600480360381019061008d91906112a6565b6105cf565b005b6100ae60048036038101906100a99190611082565b6107c5565b005b6100b8610841565b6040516100c591906115eb565b60405180910390f35b6100e860048036038101906100e39190611082565b610beb565b6040516100fa96959493929190611675565b60405180910390f35b61010d82826107c5565b6000808383604051610120929190611722565b908152602001604051809103902060006101000a81548173ffffffffffffffffffffffffffffffffffffffff021916908373ffffffffffffffffffffffffffffffffffffffff1602179055506000600260018484604051610182929190611722565b908152602001604051809103902054815481106101a2576101a161173b565b5b90600052602060002090600702016040518060e00160405290816000820180546101cb90611799565b80601f01602080910402602001604051908101604052809291908181526020018280546101f790611799565b80156102445780601f1061021957610100808354040283529160200191610244565b820191906000526020600020905b81548152906001019060200180831161022757829003601f168201915b505050505081526020016001820160009054906101000a900473ffffffffffffffffffffffffffffffffffffffff1673ffffffffffffffffffffffffffffffffffffffff1673ffffffffffffffffffffffffffffffffffffffff1681526020016002820180546102b390611799565b80601f01602080910402602001604051908101604052809291908181526020018280546102df90611799565b801561032c5780601f106103015761010080835404028352916020019161032c565b820191906000526020600020905b81548152906001019060200180831161030f57829003601f168201915b5050505050815260200160038201805461034590611799565b80601f016020809104026020016040519081016040528092919081815260200182805461037190611799565b80156103be5780601f10610393576101008083540402835291602001916103be565b820191906000526020600020905b8154815290600101906020018083116103a157829003601f168201915b505050505081526020016004820180546103d790611799565b80601f016020809104026020016040519081016040528092919081815260200182805461040390611799565b80156104505780601f1061042557610100808354040283529160200191610450565b820191906000526020600020905b81548152906001019060200180831161043357829003601f168201915b5050505050815260200160058201805461046990611799565b80601f016020809104026020016040519081016040528092919081815260200182805461049590611799565b80156104e25780601f106104b7576101008083540402835291602001916104e2565b820191906000526020600020905b8154815290600101906020018083116104c557829003601f168201915b505050505081526020016006820160009054906101000a900460ff16151515158152505090506040518060200160405280600081525081600001819052506000816020019073ffffffffffffffffffffffffffffffffffffffff16908173ffffffffffffffffffffffffffffffffffffffff1681525050604051806020016040528060008152508160400181905250604051806020016040528060008152508160600181905250604051806020016040528060008152508160800181905250604051806020016040528060008152508160a0018190525060008160c0019015159081151581525050505050565b856000866040516105e091906117fb565b908152602001604051809103902060006101000a81548173ffffffffffffffffffffffffffffffffffffffff021916908373ffffffffffffffffffffffffffffffffffffffff16021790555060006040518060e001604052808981526020018873ffffffffffffffffffffffffffffffffffffffff1681526020018781526020018681526020018581526020018481526020018315158152509050600281908060018154018082558091505060019003906000526020600020906007020160009091909190915060008201518160000190816106bc91906119c8565b5060208201518160010160006101000a81548173ffffffffffffffffffffffffffffffffffffffff021916908373ffffffffffffffffffffffffffffffffffffffff160217905550604082015181600201908161071991906119c8565b50606082015181600301908161072f91906119c8565b50608082015181600401908161074591906119c8565b5060a082015181600501908161075b91906119c8565b5060c08201518160060160006101000a81548160ff021916908315150217905550505060035460018760405161079191906117fb565b908152602001604051809103902081905550600360008154809291906107b690611ac9565b91905055505050505050505050565b600082826040516107d7929190611722565b908152602001604051809103902060009054906101000a900473ffffffffffffffffffffffffffffffffffffffff1673ffffffffffffffffffffffffffffffffffffffff163373ffffffffffffffffffffffffffffffffffffffff161461083d57600080fd5b5050565b60606002805480602002602001604051908101604052809291908181526020016000905b82821015610be257838290600052602060002090600702016040518060e001604052908160008201805461089890611799565b80601f01602080910402602001604051908101604052809291908181526020018280546108c490611799565b80156109115780601f106108e657610100808354040283529160200191610911565b820191906000526020600020905b8154815290600101906020018083116108f457829003601f168201915b505050505081526020016001820160009054906101000a900473ffffffffffffffffffffffffffffffffffffffff1673ffffffffffffffffffffffffffffffffffffffff1673ffffffffffffffffffffffffffffffffffffffff16815260200160028201805461098090611799565b80601f01602080910402602001604051908101604052809291908181526020018280546109ac90611799565b80156109f95780601f106109ce576101008083540402835291602001916109f9565b820191906000526020600020905b8154815290600101906020018083116109dc57829003601f168201915b50505050508152602001600382018054610a1290611799565b80601f0160208091040260200160405190810160405280929190818152602001828054610a3e90611799565b8015610a8b5780601f10610a6057610100808354040283529160200191610a8b565b820191906000526020600020905b815481529060010190602001808311610a6e57829003601f168201915b50505050508152602001600482018054610aa490611799565b80601f0160208091040260200160405190810160405280929190818152602001828054610ad090611799565b8015610b1d5780601f10610af257610100808354040283529160200191610b1d565b820191906000526020600020905b815481529060010190602001808311610b0057829003601f168201915b50505050508152602001600582018054610b3690611799565b80601f0160208091040260200160405190810160405280929190818152602001828054610b6290611799565b8015610baf5780601f10610b8457610100808354040283529160200191610baf565b820191906000526020600020905b815481529060010190602001808311610b9257829003601f168201915b505050505081526020016006820160009054906101000a900460ff16151515158152505081526020019060010190610865565b50505050905090565b6060600060608060606000600260018989604051610c0a929190611722565b90815260200160405180910390205481548110610c2a57610c2961173b565b5b9060005260206000209060070201600001600260018a8a604051610c4f929190611722565b90815260200160405180910390205481548110610c6f57610c6e61173b565b5b906000526020600020906007020160010160009054906101000a900473ffffffffffffffffffffffffffffffffffffffff16600260018b8b604051610cb5929190611722565b90815260200160405180910390205481548110610cd557610cd461173b565b5b9060005260206000209060070201600301600260018c8c604051610cfa929190611722565b90815260200160405180910390205481548110610d1a57610d1961173b565b5b9060005260206000209060070201600401600260018d8d604051610d3f929190611722565b90815260200160405180910390205481548110610d5f57610d5e61173b565b5b9060005260206000209060070201600501600260018e8e604051610d84929190611722565b90815260200160405180910390205481548110610da457610da361173b565b5b906000526020600020906007020160060160009054906101000a900460ff16858054610dcf90611799565b80601f0160208091040260200160405190810160405280929190818152602001828054610dfb90611799565b8015610e485780601f10610e1d57610100808354040283529160200191610e48565b820191906000526020600020905b815481529060010190602001808311610e2b57829003601f168201915b50505050509550838054610e5b90611799565b80601f0160208091040260200160405190810160405280929190818152602001828054610e8790611799565b8015610ed45780601f10610ea957610100808354040283529160200191610ed4565b820191906000526020600020905b815481529060010190602001808311610eb757829003601f168201915b50505050509350828054610ee790611799565b80601f0160208091040260200160405190810160405280929190818152602001828054610f1390611799565b8015610f605780601f10610f3557610100808354040283529160200191610f60565b820191906000526020600020905b815481529060010190602001808311610f4357829003601f168201915b50505050509250818054610f7390611799565b80601f0160208091040260200160405190810160405280929190818152602001828054610f9f90611799565b8015610fec5780601f10610fc157610100808354040283529160200191610fec565b820191906000526020600020905b815481529060010190602001808311610fcf57829003601f168201915b505050505091509550955095509550955095509295509295509295565b6000604051905090565b600080fd5b600080fd5b600080fd5b600080fd5b600080fd5b60008083601f8401126110425761104161101d565b5b8235905067ffffffffffffffff81111561105f5761105e611022565b5b60208301915083600182028301111561107b5761107a611027565b5b9250929050565b6000806020838503121561109957611098611013565b5b600083013567ffffffffffffffff8111156110b7576110b6611018565b5b6110c38582860161102c565b92509250509250929050565b600080fd5b6000601f19601f8301169050919050565b7f4e487b7100000000000000000000000000000000000000000000000000000000600052604160045260246000fd5b61111d826110d4565b810181811067ffffffffffffffff8211171561113c5761113b6110e5565b5b80604052505050565b600061114f611009565b905061115b8282611114565b919050565b600067ffffffffffffffff82111561117b5761117a6110e5565b5b611184826110d4565b9050602081019050919050565b82818337600083830152505050565b60006111b36111ae84611160565b611145565b9050828152602081018484840111156111cf576111ce6110cf565b5b6111da848285611191565b509392505050565b600082601f8301126111f7576111f661101d565b5b81356112078482602086016111a0565b91505092915050565b600073ffffffffffffffffffffffffffffffffffffffff82169050919050565b600061123b82611210565b9050919050565b61124b81611230565b811461125657600080fd5b50565b60008135905061126881611242565b92915050565b60008115159050919050565b6112838161126e565b811461128e57600080fd5b50565b6000813590506112a08161127a565b92915050565b600080600080600080600060e0888a0312156112c5576112c4611013565b5b600088013567ffffffffffffffff8111156112e3576112e2611018565b5b6112ef8a828b016111e2565b97505060206113008a828b01611259565b965050604088013567ffffffffffffffff81111561132157611320611018565b5b61132d8a828b016111e2565b955050606088013567ffffffffffffffff81111561134e5761134d611018565b5b61135a8a828b016111e2565b945050608088013567ffffffffffffffff81111561137b5761137a611018565b5b6113878a828b016111e2565b93505060a088013567ffffffffffffffff8111156113a8576113a7611018565b5b6113b48a828b016111e2565b92505060c06113c58a828b01611291565b91505092959891949750929550565b600081519050919050565b600082825260208201905092915050565b6000819050602082019050919050565b600081519050919050565b600082825260208201905092915050565b60005b8381101561143a57808201518184015260208101905061141f565b60008484015250505050565b600061145182611400565b61145b818561140b565b935061146b81856020860161141c565b611474816110d4565b840191505092915050565b61148881611230565b82525050565b6114978161126e565b82525050565b600060e08301600083015184820360008601526114ba8282611446565b91505060208301516114cf602086018261147f565b50604083015184820360408601526114e78282611446565b915050606083015184820360608601526115018282611446565b9150506080830151848203608086015261151b8282611446565b91505060a083015184820360a08601526115358282611446565b91505060c083015161154a60c086018261148e565b508091505092915050565b6000611561838361149d565b905092915050565b6000602082019050919050565b6000611581826113d4565b61158b81856113df565b93508360208202850161159d856113f0565b8060005b858110156115d957848403895281516115ba8582611555565b94506115c583611569565b925060208a019950506001810190506115a1565b50829750879550505050505092915050565b600060208201905081810360008301526116058184611576565b905092915050565b600082825260208201905092915050565b600061162982611400565b611633818561160d565b935061164381856020860161141c565b61164c816110d4565b840191505092915050565b61166081611230565b82525050565b61166f8161126e565b82525050565b600060c082019050818103600083015261168f818961161e565b905061169e6020830188611657565b81810360408301526116b0818761161e565b905081810360608301526116c4818661161e565b905081810360808301526116d8818561161e565b90506116e760a0830184611666565b979650505050505050565b600081905092915050565b600061170983856116f2565b9350611716838584611191565b82840190509392505050565b600061172f8284866116fd565b91508190509392505050565b7f4e487b7100000000000000000000000000000000000000000000000000000000600052603260045260246000fd5b7f4e487b7100000000000000000000000000000000000000000000000000000000600052602260045260246000fd5b600060028204905060018216806117b157607f821691505b6020821081036117c4576117c361176a565b5b50919050565b60006117d582611400565b6117df81856116f2565b93506117ef81856020860161141c565b80840191505092915050565b600061180782846117ca565b915081905092915050565b60008190508160005260206000209050919050565b60006020601f8301049050919050565b600082821b905092915050565b6000600883026118747fffffffffffffffffffffffffffffffffffffffffffffffffffffffffffffffff82611837565b61187e8683611837565b95508019841693508086168417925050509392505050565b6000819050919050565b6000819050919050565b60006118c56118c06118bb84611896565b6118a0565b611896565b9050919050565b6000819050919050565b6118df836118aa565b6118f36118eb826118cc565b848454611844565b825550505050565b600090565b6119086118fb565b6119138184846118d6565b505050565b5b818110156119375761192c600082611900565b600181019050611919565b5050565b601f82111561197c5761194d81611812565b61195684611827565b81016020851015611965578190505b61197961197185611827565b830182611918565b50505b505050565b600082821c905092915050565b600061199f60001984600802611981565b1980831691505092915050565b60006119b8838361198e565b9150826002028217905092915050565b6119d182611400565b67ffffffffffffffff8111156119ea576119e96110e5565b5b6119f48254611799565b6119ff82828561193b565b600060209050601f831160018114611a325760008415611a20578287015190505b611a2a85826119ac565b865550611a92565b601f198416611a4086611812565b60005b82811015611a6857848901518255600182019150602085019450602081019050611a43565b86831015611a855784890151611a81601f89168261198e565b8355505b6001600288020188555050505b505050505050565b7f4e487b7100000000000000000000000000000000000000000000000000000000600052601160045260246000fd5b6000611ad482611896565b91507fffffffffffffffffffffffffffffffffffffffffffffffffffffffffffffffff8203611b0657611b05611a9a565b5b60018201905091905056fea264697066735822122077fee3550cb5129973a77da0a4d46511f1ed339dabd3a016922c9da4ca9e219164736f6c63430008130033",
  "immutableReferences": {},
  "source": "// SPDX-License-Identifier: MIT\npragma solidity >=0.4.22 <0.9.0;\n\n\n// TO DO: Can change here to make it struct and eliminate the need of mysql to store info and metadata\n\n\n\ncontract PublishPaper{\n    struct Paper {\n    string timestamp;\n    address userId;\n    string cid;\n    string author;\n    string title;\n    string description;\n    bool dayCompleted;\n    }\n    // mapping of cid with user's account id\n    mapping (string => address) paperToOwner;\n    mapping ( string => uint) cidToPaperIndex; \n    Paper[] papers;\n    uint paperIndex = 0;\n\n    function onlyOwner(string calldata cid) view public {\n        require(msg.sender == paperToOwner[cid]);\n    }\n\n    function publishPaper (\n            string memory _timestamp ,\n            address _userId,\n            string memory _cid,\n            string memory _author,\n            string memory _title,\n            string memory _description,\n            bool _dayCompleted \n        ) public {\n        paperToOwner[_cid] = _userId;\n        Paper memory paper = Paper(_timestamp, _userId, _cid, _author, _title, _description, _dayCompleted); \n        papers.push(paper);\n        cidToPaperIndex[_cid] = paperIndex;\n        paperIndex++;\n    }\n\n    function deletePaper (string calldata cid) public{\n        onlyOwner(cid);\n\n        paperToOwner[cid] = address(0x0);\n        Paper memory paper = papers[cidToPaperIndex[cid]];\n        paper.timestamp = \"\";\n        paper.userId = address(0x0);\n        paper.cid = \"\";\n        paper.author = \"\";\n        paper.title = \"\";\n        paper.description = \"\";\n        paper.dayCompleted = false;\n    }\n\n    function getPaper(string calldata cid) public view returns (string memory,address, string memory, string memory, string memory, bool){\n        return (papers[cidToPaperIndex[cid]].timestamp, papers[cidToPaperIndex[cid]].userId, papers[cidToPaperIndex[cid]].author, papers[cidToPaperIndex[cid]].title, papers[cidToPaperIndex[cid]].description, papers[cidToPaperIndex[cid]].dayCompleted);\n    }\n\n    function getPapers() public view returns (Paper[] memory) {\n        return (papers);\n    }\n}",
  "sourcePath": "/home/ishan/De-Reasearch/Backend/contracts/paper_info.sol",
  "compiler": {
    "name": "solc",
    "version": "0.8.19+commit.7dd6d404.Emscripten.clang"
  },
  "schemaVersion": "3.4.16",
  "updatedAt": "2023-10-21T08:41:19.871Z",
  "networkType": "ethereum",
  "devdoc": {
    "kind": "dev",
    "methods": {},
    "version": 1
  },
  "userdoc": {
    "kind": "user",
    "methods": {},
    "version": 1
  }
}